:02000000C72D0A
:1000060083160313141911281F301105F100710806
:10001600003A031D11280130F0001228F0010800F3
:0E0026008312031344088A0043088200080076
:10003400831203138C11210893003F088316B10027
:10004400831240088316B200831241088316B3005A
:10005400831242088316B4008316141D5B2883128E
:100064003F0840044104420403195A288316310806
:10007400320433043404031D5128831265088400B8
:1000840004308000840A6308C3006408C400132099
:100094008A110A12013083120313F0009F280130E1
:1000A4008316B102031CB202031CB302031CB40284
:1000B4002E2883123F088316B1008312400883164A
:1000C400B200831241088316B300831242088316D8
:1000D400B40083128C1997283F0840044104420459
:1000E4000319962883163108320433043404031D9B
:1000F4008D2883126508840004308000840A630814
:10010400C3006408C40013208A110A120130831248
:100114000313F0009F2801308316B102031CB202BE
:10012400031CB302031CB4026B288316111B9C2806
:0C013400F0019F2811150230F0000800B7
:080140008316031311150800DA
:10014800831203133F088316B300831240088316F3
:10015800B400831241088316B5008312420883163F
:10016800B600B101B2013208123C031DBD283108A6
:100178008E3C031CC828032070080319C428C8280B
:10018800B10A0319B20AB72812303202031DCE2869
:100198008F303102031CD3287B30F0000229111460
:1001A8008316111C012983123F08400441044204AC
:1001B8000319002983163308340435043604031D53
:1001C800F72883126508840005308000840A6308D4
:1001D800C3006408C40013208A110A120130831274
:1001E8000313F000022901308316B302031CB40282
:0E01F800031CB502031CB602D428F001080057
:1002060083160313B001F0302D05AE002D08AF00A4
:10021600AF0D2F10AF0D2F10AF0D2F10AF0D2F10EC
:10022600F030AF05A42003204E308312A1001A201F
:10023600032030082E048312A1002115A1151A20CF
:1002460003202130FD00FD0B262930082E048312E1
:10025600A100A1151A2003204230FD00FD0B312913
:10026600000030082F048312A1002115A1151A20C1
:1002760003202130FD00FD0B3E2930082F04831298
:10028600A100A1151A200320A0202D08013A031D64
:1002960055290630FC003030FD00FD0B5029FC0BC3
:0602A600502900000800D1
:0802AC00FA1FF21300300800F4
:0E02B400F201F101F001F801F3010030080041
:1002C20083120313F801F9011030FC00710DF80DCF
:1002D200F90D7408F8027508031C750FF90203186A
:1002E20079297408F80775080318750FF9070310C0
:0A02F200F00DF10DFC0B6729080068
:1002FC007B15FB1F88290130F300F201F101F0019D
:08030C00FA0DF20CFF300800AD
:100314000E3083120313FD00FD0B8E29000008002C
:100324007B14FB1F9D29F201FA1FFF30F200F1003C
:0A033400F000FA0DF20CFF30080093
:10033E00FB14FB1FA929FF30F300F200F100F000BF
:08034E00FA0DF20CFF3008006B
:10035600A0017208031DC0297108F2007008F1009F
:10036600F001A0157208031DC0297108F200F10101
:10037600A011201672080319CE292008F302031DC6
:10038600031CD2290310F21BD629F00DF10DF20D34
:10039600F30BC629D2290130FC005A21D929023093
:0E03A600FC007E21D9290430FC0056210800FD
:0E03B4008312031344088A00430882000800E5
:1003C200013083160313AC00022A2803F0007008E0
:1003D200803EAD000321122A2803F0007008C03EBF
:1003E200AD000321122A2803F0007008943EAD00EC
:1003F2000321122A2803F0007008D43EAD00032125
:10040200122A2708013A0319E6292708023A031992
:10041200ED292708033A0319F4292708043A031996
:10042200FB29F0302905AA002908AB00AB0D2B10DF
:10043200AB0D2B10AB0D2B10AB0D2B10F030AB0511
:10044200A42003204E308312A1001A2003202C087E
:100452002A048312A1002115A1151A2003200D30B0
:10046200FC00FB30FD00FD0B342AFC0B342A00009B
:1004720000002C082A048312A100A1151A200320CF
:100482001A30FC00F830FD00FD0B452AFC0B452A12
:1004920000002C082B048312A1002115A1151A209B
:1004A20003200D30FC00FB30FD00FD0B562AFC0B37
:1004B200562A000000002C082B048312A100A1156B
:0804C2001A200320A02008000D
:1004CA0083160313AA0105302A020318732A2A087D
:1004DA002907840020308000AA0A682A2A082907E6
:1004EA0084008001AA032A082907AB000A30F40015
:1004FA00F5012708F0002808F10061217808F000CA
:10050A007908F1003030F00783162B088400700850
:10051A0080000A30F400F5012708F0002808F100ED
:10052A00612170088316A7007108A80000307106BF
:10053A00031DA12A00307006031DA42AA62AAA03B5
:04054A00782A080003
:06054E00FB15FF30080060
:10055400831203137408003A031DC52A7508003A70
:10056400031DC52A7608003A031DC52A7708003AF8
:10057400031DC52AFF30F000FF30F1007F30F20088
:10058400FF30F300602B8312031377080319542BF5
:1005940073080319572B720876068039FA00F2178C
:1005A400F617A0017208F8007108FC007008FD003D
:1005B4007408FD027508031C750FFC027608031C01
:1005C400760FF802F801FC01FD01031CF02A031068
:1005D400F20CF10CF00CF80C0130A0007708F302D7
:1005E400031CFA2A7E302007F30703185A2BFF2A2C
:1005F4007E302007F307031C5D2B1830FA07FD0D2E
:10060400FC0DF80DF00DF10DF20DA00D7408F002C3
:100614007508031C750FF1027608031C760FF202AD
:10062400760DA004201C182B7D14232B7408F007CE
:1006340075080318750FF10776080318760AF20790
:100644007D10FA031F307A05031D012B7B1B7D1CD3
:100654004A2B0310F00DF10DF20DA00D7408F002F9
:100664007508031C750FF1027608031C760FF2025D
:10067400760D20040139FD070318FC0A0319F80A52
:10068400031D4A2BF80CFC0CFD0CF30A03195A2B1E
:10069400FA1FF8137808F2007C08F1007D08F000D6
:1006A40000305F2B0130A7225F2B02305A215F2BD1
:0E06B40004309F215F2B08307E2100000800DB
:1006C20083120313FB017308031D77080319B82B68
:1006D20072087606FA007708F3077E30031C752B42
:1006E200F3020318BB2B782BF302031CBE2B7208F8
:1006F200F8007108FC007008FD00F817F6170310E7
:10070200F201F101F0011830A0007D1C922B740857
:10071200F00775080318750FF10776080318760FAE
:10072200F207F20CF10CF00CF80CFC0CFD0C0310AF
:10073200A00B862BF21BA22BF80DF00DF10DF20D82
:10074200F3037B1B701CB42BF81FB42BF00A0319A4
:10075200F10A0319F20A031DB42BF20CF10CF00C8E
:10076200F30A0319BB2BFA1FF2130030C02B01301E
:100772005A21C02B02309F21C02B04307E21000061
:0207820008006D
:10078400831603132208840000080319D52B2008BC
:10079400A7002108A800220884000008A900E1217C
:0807A400A10AA20AC22B080001
:1007AC0083160313A301A4012008A5002108A600A9
:1007BC0080302106F00080307002031DE72B0030E2
:1007CC0020020318F52B0130A3000030A4002008F0
:1007DC00003CA5002108031C013EA601A602250829
:1007EC00A7002608A8002208A9006522063083125B
:1007FC00EE000030EF006F08003C031D072C6E0864
:10080C00003C0318262C6E0883162207F2000130D8
:10081C0083126E02F0000030031C013E6F02F100E7
:10082C0070088316220784000008F0007208840008
:10083C007008800001308312EE02031CEF03012CC0
:10084C008316220884002030800023082404031916
:10085C004A2C8312EE01EF016E08831622078400E6
:10086C000008203A031D3F2C8312EE0A0319EF0AED
:10087C00322C83120130EE02031CEF036E08831638
:0A088C00220784002D3080000800D0
:10089600831203137008F8007108F000F101F201E9
:1008A600F301FB01FC019630F300FA017008F10038
:0C08B6007808F000F801F201AB21080006
:1008C20083120313FB01730803199E2C7208FA00AA
:1008D200F2178E30F302F31FA12CF309F30A08304A
:1008E2007302031C842CF300F10D7208F100F20173
:1008F20008307302031C842CF300F10DF10173081C
:10090200031D03108C2C730803198C2C0310F20C9A
:10091200F10CF30B872C7B1B711C962C031C962C61
:10092200F10A0319F20AF21BAD2CFA1FB02CF209DC
:10093200F109F10A0319F20AB02CF201F101B02C0B
:100942007B14FB1FB32CF201FA1FB32CFF30F20011
:10095200F100FA0DF20CB32C0130FC00B52C003082
:10096200FC00B52CFF30FC00FC080319B92C9221C5
:0A0972007108F0007208F10008009F
:10097C00831203139F01C0309F042F09F0007008ED
:10098C0083169F051F179F1783126E08F000F00D3A
:10099C007010F00D7010F00D701070089F041F1483
:1009AC008A211F151F1DDC2C0000D82C1F101E08BF
:1009BC00F100F00183161E08F0040030F104080069
:1009CC0083120313EE01A42003204E308312A100E6
:1009DC001A2003204E30FC00EB30FD00FD0BF42CF4
:1009EC00FC0BF42C303083126E04A1002115A115E0
:1009FC001A2003202130FD00FD0B022D3030831214
:100A0C006E04A100A1151A2003201A30FC00F83046
:100A1C00FD00FD0B0F2DFC0B0F2D00003030831251
:100A2C006E04A1002115A1151A2003202130FD0010
:100A3C00FD0B1E2D303083126E04A100A1151A205F
:100A4C0003201A30FC00F830FD00FD0B2B2DFC0BA5
:100A5C002B2D0000303083126E04A1002115A1153E
:100A6C001A2003202130FD00FD0B3A2D303083126B
:100A7C006E04A100A1151A2003201A30FC00F830D6
:100A8C00FD00FD0B472DFC0B472D00002030831281
:100A9C006E04A1002115A1151A2003202130FD00A0
:100AAC00FD0B562D203083126E04A100A1151A20C7
:100ABC000320A0201A30FC00F830FD00FD0B642D43
:100ACC00FC0B642D00002830AD0003210630AD0076
:040ADC0003210800EA
:100AE000DA218A110A128000840AC30A0319C40A8F
:080AF000F003031D702D080046
:100AF800033083120313E9000030EA000030EB00F2
:100B08000030A430E6000030E7000030E800003094
:100B1800FF30DA00FF30DB000030DC000030FF304F
:100B2800D700FF30D800FF30D900FF301A30E0007E
:100B38000030E1002130E2000030A030DD0000305C
:100B4800DE000030DF0000308316141394130716FC
:0A0B5800871538308312940008005E
:100B6200FF3083120313D400FF30D500FF30D600CC
:100B7200FF309F01C0309F042F09F00070088316D8
:0C0B82009F051F179F1783121F14080007
:100B8E008C260E30831603139F00051483128601E4
:100B9E00FE3083168600B1251430831693007C2513
:100BAE00E6240130AD0003210C30AD000321831289
:100BBE00EE01BE244B240030F4000030F50020304E
:100BCE00F6008130F70061230030F4000030F500AC
:100BDE000030F6008930F700AA220030F400003011
:100BEE00F5004830F6008530F70061236124700867
:100BFE00EC007108ED0070088316A0007108A100CA
:100C0E004530A200D6230130AD0003210130A000F3
:100C1E000130A1002230A200C2230230A000023017
:100C2E00A1004530A200C2230230A7000830A80060
:100C3E00E930A900E1210230A7000930A8004330B5
:100C4E00A900E1210430FB000C30FC003330FD0024
:100C5E00FD0B2F2EFC0B2F2EFB0B2F2E000000005A
:100C6E008030F000803083126D067002031D412E1D
:100C7E006C08323C03185F2E0610061286150130E2
:100C8E008316AD0003210130A0000130A1003030E9
:100C9E00A200C2230230FB000430FC00BA30FD007B
:100CAE00FD0B572EFC0B572EFB0B572E0000632E01
:0C0CBE008312061406168611DE2D642E2B
:100D180022308400213083120313F0006A30C300AC
:080D28000630C400702508002C
:100CD400543465346D34703465347234613474342E
:0A0CE4007534723465343A3400347C
:020CEE000F34C1
:100CF0004634693472346534203464346534743471
:0E0D0000653463347434653464342134003453
:080D0E0000340034003400340D
:02400E004A2F37
:00000001FF
